:100000000110140000000000401F0000FFD300009A
:10001000020FCCFFFFFFFFFFFFFFFF0217A07E03D1
:100020009000EEE06F6005EFF0E4A3F09000EEE0EA
:10003000B4FF02E4FE9000EFE004F0C39E50037FA3
:1000400000229000EF7403F07F0122021991E4F581
:10005000E3439F08439F02FF0FBF0FFC539FF775B9
:10006000BE0EE4F5BFF5B9759276220214748F1CAA
:10007000EF25E02410F8E2F51F08E2F520EF25E077
:100080002426F582E43415F583E493FC740193FD92
:10009000ECC313FEED13FFC3E5209FE51F9E500840
:1000A000E4F51DF51E0204C6D3ED9520EC951F4026
:1000B00037E51C94044008E4F51DF51E0204C6AEA5
:1000C0001FAF207C007D0A1204E4E51C25E02426F5
:1000D000F582E43415F583E493FC740193FD120476
:1000E000F68E1D8F1E0204C6E51C25E02436F5821F
:1000F000E43415F583E493FA740193FBD39520EA75
:10010000951F4062E51C94044008E4F51DF51E02AD
:1001100004C6E51C25E02426F582E43415F583E4C5
:1001200093FE740193FFC3E5209FFFE51F9EFE7CB5
:10013000007D0A1204E4E51C25E02426F582E4345F
:1001400015F583E493FC740193FDC3EB9DFDEA9CDC
:10015000FC1204F68E1D8F1E740A251EF51EE43552
:100160001DF51D0204C6E51C25E02446F582E43495
:1001700015F583E493FA740193FBD39520EA951F58
:100180004054E51C25E02436F582E43415F583E47B
:1001900093FE740193FFC3E5209FFFE51F9EFE7C45
:1001A000007D0A1204E4E51C25E02436F582E434DF
:1001B00015F583E493FC740193FDC3EB9DFDEA9C6C
:1001C000FC1204F68E1D8F1E7414251EF51EE435D8
:1001D0001DF51D0204C6E51C25E02456F582E43415
:1001E00015F583E493FA740193FBD39520EA951FE8
:1001F0004054E51C25E02446F582E43415F583E4FB
:1002000093FE740193FFC3E5209FFFE51F9EFE7CD4
:10021000007D0A1204E4E51C25E02446F582E4345E
:1002200015F583E493FC740193FDC3EB9DFDEA9CFB
:10023000FC1204F68E1D8F1E741E251EF51EE4355D
:100240001DF51D0204C6E51C25E02466F582E43494
:1002500015F583E493FA740193FBD39520EA951F77
:100260004054E51C25E02456F582E43415F583E47A
:1002700093FE740193FFC3E5209FFFE51F9EFE7C64
:10028000007D0A1204E4E51C25E02456F582E434DE
:1002900015F583E493FC740193FDC3EB9DFDEA9C8B
:1002A000FC1204F68E1D8F1E7428251EF51EE435E3
:1002B0001DF51D0204C6E51C25E02476F582E43414
:1002C00015F583E493FA740193FBD39520EA951F07
:1002D0004054E51C25E02466F582E43415F583E4FA
:1002E00093FE740193FFC3E5209FFFE51F9EFE7CF4
:1002F000007D0A1204E4E51C25E02466F582E4345E
:1003000015F583E493FC740193FDC3EB9DFDEA9C1A
:10031000FC1204F68E1D8F1E7432251EF51EE43568
:100320001DF51D0204C6E51C25E02486F582E43493
:1003300015F583E493FA740193FBD39520EA951F96
:100340004054E51C25E02476F582E43415F583E479
:1003500093FE740193FFC3E5209FFFE51F9EFE7C83
:10036000007D0A1204E4E51C25E02476F582E434DD
:1003700015F583E493FC740193FDC3EB9DFDEA9CAA
:10038000FC1204F68E1D8F1E743C251EF51EE435EE
:100390001DF51D0204C6E51C25E02496F582E43413
:1003A00015F583E493FA740193FBD39520EA951F26
:1003B0004054E51C25E02486F582E43415F583E4F9
:1003C00093FE740193FFC3E5209FFFE51F9EFE7C13
:1003D000007D0A1204E4E51C25E02486F582E4345D
:1003E00015F583E493FC740193FDC3EB9DFDEA9C3A
:1003F000FC1204F68E1D8F1E7446251EF51EE43574
:100400001DF51D0204C6E51C25E024A6F582E43492
:1004100015F583E493FA740193FBD39520EA951FB5
:100420004053E51C25E02496F582E43415F583E479
:1004300093FE740193FFC3E5209FFFE51F9EFE7CA2
:10044000007D0A1204E4E51C25E02496F582E434DC
:1004500015F583E493FC740193FDC3EB9DFDEA9CC9
:10046000FC1204F68E1D8F1E7450251EF51EE435F9
:100470001DF51D8061E51C25E024A6F582E43415F8
:10048000F583E493FE740193FFC3E5209FFFE51F0E
:100490009EFE7C007D0A1204E4E51C25E024A6F5FE
:1004A00082E43415F583E493FC740193FDE51C2587
:1004B000E024B6F582E43415F583C37401939DFD01
:1004C000E4939CFC1204F68E1D8F1E745A251EF5B3
:1004D0001EE4351DF51DAE1DAF1E22BB010689822F
:1004E0008A83E0225002E722BBFE02E32289828A4D
:1004F00083E49322EF8DF0A4A8F0CF8CF0A428CE53
:100500008DF0A42EFE22BC000BBE0029EF8DF084DE
:10051000FFADF022E4CCF875F008EF2FFFEE33FECC
:10052000EC33FCEE9DEC984005FCEE9DFE0FD5F003
:10053000E9E4CEFD22EDF8F5F0EE8420D21CFEAD0C
:10054000F075F008EF2FFFED33FD4007985006D50A
:10055000F0F222C398FD0FD5F0EA22E88FF0A4CC88
:100560008BF0A42CFCE98EF0A42CFC8AF0EDA42CDA
:10057000FCEA8EF0A4CDA8F08BF0A42DCC3825F0A9
:10058000FDE98FF0A42CCD35F0FCEB8EF0A4FEA994
:10059000F0EB8FF0A4CFC5F02ECD39FEE43CFCEAA1
:1005A000A42DCE35F0FDE43CFC2275F008758200E8
:1005B000EF2FFFEE33FECD33CDCC33CCC58233C528
:1005C000829BED9AEC99E58298400CF582EE9BFEB9
:1005D000ED9AFDEC99FC0FD5F0D6E4CEFBE4CDFA14
:1005E000E4CCF9A88222B800C1B90059BA002DECB8
:1005F0008BF084CFCECDFCE5F0CBF97818EF2FFF50
:10060000EE33FEED33FDEC33FCEB33FB10D70399F7
:100610004004EB99FB0FD8E5E4F9FA227818EF2FA4
:10062000FFEE33FEED33FDEC33FCC933C910D705C3
:100630009BE99A4007EC9BFCE99AF90FD8E0E4C9E2
:10064000FAE4CCFB2275F010EF2FFFEE33FEED3312
:10065000FDCC33CCC833C810D7079BEC9AE899403F
:100660000AED9BFDEC9AFCE899F80FD5F0DAE4CDA1
:10067000FBE4CCFAE4C8F922EB9FF5F0EA9E42F0E5
:10068000E99D42F0E89C45F022E8600FECC313FCC2
:10069000ED13FDEE13FEEF13FFD8F122E8600FEF2C
:1006A000C333FFEE33FEED33FDEC33FCD8F122E62D
:1006B000FC08E6FD08E6FE08E6FF22E6FB08E6F990
:1006C00008E6FA08E6CBF822ECF608EDF608EEF6B6
:1006D00008EFF622ECF208EDF208EEF208EFF22253
:1006E000D083D082E493F608740193F608740293E1
:1006F000F608740393F6740473D083D082E493F203
:1007000008740193F208740293F208740393F2746C
:1007100004738A838982E473E4F519F518E51825D2
:10072000E025E02486F81206E9000000000518E53F
:1007300018B406E9121BA3E4F518E51825E025E036
:100740002486F8C000E2FC08E2FD08E2FE08E2FFB1
:10075000E51825E025E02450F81206ABEF2BFFEE5C
:100760003AFEED39FDEC38FCD0001206C40518E560
:1007700018B406C60519E519C3940540B7E4F51881
:10078000AF19E4FCFDFEC004A905AA06AB07E518F5
:1007900025E025E02486F8E2FC08E2FD08E2FE08F8
:1007A000E2FFD0001205D68F1D8E1C8D1B8C1AAB5C
:1007B0001DAA1CA91BA81AC000E51825E02470F882
:1007C000E6FE08E6FFE4FCFDD00012054B8F1D8E0F
:1007D0001C8D1B8C1A78071206798F1D8E1C8D1BA1
:1007E0008C1AE47FB87E0BFDFCAB1DAA1CA91BA8CC
:1007F0001AD31206684030E51D2448FFE51C34F486
:10080000FEE51B34FFFDE51A34FFFCE51825E02565
:10081000E02430F81206B8E51825E02430F8740B0F
:10082000F20874B8F2801EE51825E025E02430F8BF
:100830001206D000000000E51825E02430F8E51C81
:10084000F208E51DF2E51825E02430F8E2FE08E2A2
:10085000FFE51825E02450F8EEF208EFF2E5182540
:10086000E02430F8E2FE08E2FFE4FCFDE51825E0B4
:1008700025E02460F81206C4E51825E025E0246090
:10088000F8C000E2FC08E2FD08E2FE08E2FF78079B
:1008900012068CD0001206C4E51825E02430F8E2D8
:1008A000FE08E2FFE51825E02440F8EEF208EFF23A
:1008B000E51825E02410F8E4F208F2E51825E02513
:1008C000E02486F81206E900000000E51825E0247F
:1008D000B6F8E4F208F20518E518640660030207AA
:1008E00070228E1A8F1BE4F51DF51EF51FF51C9066
:1008F0000103E070089000EFE06403601EE51C2532
:10090000E024B6F8E4F208F2E51C25E025E02486B0
:10091000F81206E9000000000209F1E51C25E024B8
:10092000C6F582E43400F583E0F51DA3E0F51EE58D
:100930001C25E024B7F9E3700219E3701AE51C25C1
:10094000E02430F8E2FE08E2FFE51C25E024A6F8EA
:10095000EEF208EFF28062E51C25E024A6F8E2FE44
:1009600008E2FFE51C25E02430F8E2FC08E2FD1275
:100970001E00AC06AD07E51DC313FEE51E13FFD335
:10098000ED9FEC9E4033E51C25E02430F8E2FE08A4
:10099000E2FFE51C25E024A6F8EEF208EFF2E51CE4
:1009A00025E024B6F8E4F208F2E51C25E025E02471
:1009B00086F81206E900000000E51C25E02430F866
:1009C000E2FE08E2FFE51C25E025E02486F8C000F1
:1009D000E2FB08E2F908E2FA08E2CBF8E4FCFDEBFE
:1009E0002FFFEA3EFEED39FDEC38FCD0001206C4C4
:1009F000E51C25E024B6F808E22401F218E23400F0
:100A0000F2051CE51CC3940650030208DFE4F51C44
:100A1000E51C25E024B7F9C3E3951B19E3951A40BB
:100A200002051F051CE51CB406E6E51F640670639D
:100A3000F51CE51C25E024B6F8E2FE08E2FF4E6056
:100A40004BE4FCFDC004A905AA06AB07E51C25E0A4
:100A500025E02486F8E2FC08E2FD08E2FE08E2FF59
:100A6000D0001205D6E51C25E02440F8EEF208EF90
:100A7000F2E51C25E024B6F8E4F208F2E51C25E0D6
:100A800025E02486F81206E900000000051CE51C9C
:100A9000B4069F228F1AE4F51BE51B25E025E02410
:100AA00030F812069FE4FBFAF9F8C31206687003E7
:100AB000020C25E51A703CE51B25E025E02430F802
:100AC000C00012069FC006C007E51B25E02440F8C1
:100AD000E2FE08E2FFFBAA06E4F9F8D007D006EF31
:100AE0002BFFEE3AFEE93DFDE83CFCD0001206B8D3
:100AF000020B9CE51AB4013BE51B25E025E0243000
:100B0000F8C00012069FC006C007E51B25E0245070
:100B1000F8E2FE08E2FFFBAA06E4F9F8D007D006E7
:100B2000EF2BFFEE3AFEE93DFDE83CFCD00012065B
:100B3000B88079E51AB4023BE51B25E025E02430B6
:100B4000F8C00012069FC006C007E51B25E0243050
:100B5000F8E2FE08E2FFFBAA06E4F9F8D007D006A7
:100B6000EF2BFFEE3AFEE93DFDE83CFCD00012061B
:100B7000B88039E51B25E025E02430F8C0001206D6
:100B80009FC006C007E51B25E02440F8E2FE08E20E
:100B9000FFFBAA06E4F9F8D007D006EF2BFFEE3AE8
:100BA000FEE93DFDE83CFCD0001206B8E51B25E05F
:100BB00025E02430F8C00012069FC3EF94B8FFEE82
:100BC000940BFEED9400FDEC9400FCD0001206B8EE
:100BD000E51B25E02440F8740BF20874B8F2E51B1D
:100BE00025E02430F8740BF20874B8F2E51B25E018
:100BF0002450F8740BF20874B8F2E51B25E025E0E8
:100C00002460F81206E900000BB8E51B25E025E09A
:100C10002460F8C000E2FC08E2FD08E2FE08E2FF02
:100C2000780712068CD0001206C4E51B25E02410BC
:100C3000F8E4F208F2051BE51B64066003020A896A
:100C40002285BA1E53BA0F43BA10E4F518E51825E9
:100C5000E025E02450F81206D0000000000518E559
:100C600018B406E975180A75ABFF121D3CE4F519B6
:100C7000E51925E025E02450F8C00012069FC004C5
:100C8000C005C006C00774C42519F8E675F003A4B2
:100C9000241AF582E4341EF583E493FB740193FA7D
:100CA000740293F9120702A804A905AA06AB07D09B
:100CB00007D006D005D004EF2BFFEE3AFEED39FD4C
:100CC000EC38FCD0001206B80519E519C3940640AB
:100CD0009FE4F5AB121D3CE4F519E51925E025E08C
:100CE0002450F8C00012069FC004C005C006C0070B
:100CF00074C42519F8E675F003A4241AF582E434C7
:100D00001EF583E493FB740193FA740293F91207BE
:100D100002A804A905AA06AB07D007D006D005D0C3
:100D200004C3EF9BFFEE9AFEED99FDEC98FCD0001A
:100D30001206B80519E519C39406409E1518E51862
:100D40006003020C57E4F519E4751D20751C4EF57F
:100D50001BF51AAF1DAE1CAD1BAC1A780712068C22
:100D60008F1D8E1C8D1B8C1AE51925E025E0245063
:100D7000F81206AB1205D68F1D8E1C8D1B8C1AE542
:100D80001925E02470F8A60608A6070519E519B488
:100D900006B6851EBA22E4F518E51825E025E024FC
:100DA00050F8C00012069FC006C007E51825E024D1
:100DB00070F8E6FE08E6FFFBAA06E4F9F8D007D0D3
:100DC0000612054BD0001206B8E51825E025E024F0
:100DD00050F8C00012069F7807120679D00012065C
:100DE000B8E51825E025E02450F812069FEC4D4E9A
:100DF0004F7003020E98E51825E025E02430F81224
:100E0000069FE51825E025E02450F81206ABC31232
:100E1000066850037F0322E51825E025E02430F81A
:100E20001206ABC000E51825E025E02450F81206B4
:100E30009FD000C3EF9BF51CEE9AF51BED99F51AB8
:100E4000EC98F519E47FFF7EFFFDFCAB1CAA1BA903
:100E50001AA819C312066840037F0322E51825E08B
:100E60002430F8E51BF208E51CF2E51825E02440E3
:100E7000F8E2FE08E2FFE51825E02430F8E2FC087D
:100E8000E2FDD39FEC9E4013ED9FFFEC9EF8E5182A
:100E900025E02410C8F208EFF2801BE51825E024B5
:100EA00010F8E4F208F2800EE51825E02410F8E4CA
:100EB000F208F27F03220518E51864066003020DAC
:100EC000897F07227518077D0774017E00A818081E
:100ED0008005C333CE33CED8F9FFACACECFBE4EFE6
:100EE0005B7003D518E3ED601D74017E00A8050852
:100EF0008005C333CE33CED8F9FFACAEECFBE4EFC4
:100F00005B70031D80E0AF187401A807088002C35E
:100F100033D8FCF5AC7401A805088002C333D8FCB3
:100F2000FFF5AD8FAE53AACF85BA2153BA0F43BA9E
:100F300010E4F51CF51BF51AF519121D3CE4F51823
:100F400074C42518F8E675F003A4241AF582E43475
:100F50001EF583E493740193FA740293F912070265
:100F60008F208E1F8D1E8C1DAB1CAA1BA91AA819C1
:100F7000C3120668500C85201C851F1B851E1A8510
:100F80001D190518E518C3940640B5AF1CAE1BAD7E
:100F90001AAC197803120679E51C2FF51CE51B3EE7
:100FA000F51BE51A3DF51AE5193CF519AF1CAE1B0A
:100FB000AD1AFC78101206798FB3AF1CAE1BAD1AB8
:100FC000AC1978081206798FB2851CB143AA308516
:100FD00021BA75AC0375ADC075AEC022E453C6DF4F
:100FE000E5C600B5C6F675830075820775FD0DE48C
:100FF000E5FEF4FF75830075820675FD0DE4E5FEE0
:10100000B50704F59E8003759E0078100000D8FC9B
:1010100053C6E043C60843C68075960375970375AB
:10102000830075820375FD0DE4E5FEF4FF75830012
:1010300075820275FD0DE4E5FEB50704F5958003A4
:1010400075958375BE0E5392FE9001007F007E025F
:10105000E4F0A3DFFCDEFA78007F00E4F208DFFCB6
:1010600078FFE4F6D8FD7581CF02109A02000002E5
:10107000139FE493A3F8E493A34003F68001F208DE
:10108000DFF48029E493A3F85407240CC8C333C4C5
:10109000540F4420C8834004F456800146F6DFE430
:1010A000800B0102040810204080901A3BE47E016E
:1010B0009360BCA3FF543F30E509541FFEE493A3A3
:1010C00060010ECF54C025E060A840B8E493A3FAB5
:1010D000E493A3F8E493A3C8C582C8CAC583CAF041
:1010E000A3C8C582C8CAC583CADFE9DEE780BE12CD
:1010F0001B228F1A900103E06003021183F51BE5A8
:101100001B25E02430F8E2FE08E2FFE48F1F8E1E6C
:10111000F51DF51CAD1DAC1C780712068C8F1F8EBB
:101120001E8D1D8C1CE51B25E025E02460F8E2FCEB
:1011300008E2FD08E2FE08E2FFE47B1FFAF9F8127C
:10114000054BEF251FFFEE351EFEED351DFDEC3581
:101150001CFC7805120679E51B25E025E02460F8E3
:101160001206C4E51B25E025E02460F8E2FC08E255
:10117000FD08E2FE08E2FF7807120679E51B25E08C
:101180002450F8EEF208EFF2051BE51B640660033D
:101190000210EFE49000FFF0A3F0751B01E51B25A2
:1011A000E02450F8E2FE08E2FF9000FFE025E02492
:1011B00051F9C3E39F19E39E5003E51BF090010032
:1011C000E025E02451F9D3E39F19E39E4003E51B9A
:1011D000F0051BE51BB406C5AF1A12000EEF700236
:1011E000FF227F01227518FF75190812193B121092
:1011F000DFBF012E7F01121C4AAD07AC06ECC31302
:10120000FCED13FDD39000F7E094009000F6E0941D
:10121000004006EC13FCED13FDAF05AE041208D23E
:101220008003AF19229000EEE0F518900103E06012
:101230002DE49000FAF0A3F09000F9E004F07006BD
:101240009000F8E004F07F05121C4AD39000F9E00A
:101250009F9000F8E09E4068121AD87F0322E49025
:1012600000F8F0A3F09000FFE025E02450F8E2FE43
:1012700008E2FFA3E025E02450F8E2FC08E2FD12BA
:101280001E00900101E0FDD3EF9DEE940040109010
:1012900000FBE004F070069000FAE004F08007E440
:1012A0009000FAF0A3F07F07121C4AD39000FBE0F5
:1012B0009F9000FAE09E4008E4F0A3F0FF120A8439
:1012C000E518047005121AD88005AF1812172DAF53
:1012D00019227522FFE4F5219000FFE0FD652170E1
:1012E00063A3E025E02450F8E2FE08E2FFED25E0EC
:1012F0002450F8E2FC08E2FD121E008E238F249099
:101300000100E025E02430F8E2FE08E2FF9000FF53
:10131000E025E02430F8E2FC08E2FD121E00900116
:1013200001E07C002524FDEC3523FCC3EF9DEE9C01
:10133000506AAF217401A807088002C333D8FCF4B7
:1013400052228058E52125E02430F8E2FE08E2FF31
:101350009000FFE025E02451F9D3E39F19E39E407C
:1013600010AD217401A805088002C333D8FCF452E3
:1013700022E52125E02451F8900101E0FDE22DFD58
:1013800018E23400FCC3EF9DEE9C5010AF217401B5
:10139000A807088002C333D8FCF452220521E521B6
:1013A000C3940450030212C8900107E522F02212F0
:1013B000003E7D01E4FF121BDF7F01121DA87F01AB
:1013C000121DC7121E47121F1B121D621219E712AF
:1013D0001C15121CB1D2AF752E01E52E24FD601C28
:1013E00014602424FE6029146030146060240770A7
:1013F0005F121A8D12180B752E048054121A8D125A
:10140000180B752E048049E52F70FC752E06804060
:10141000120D868F2E121E328036D39000F7E09484
:10142000009000F6E09400400CA3E024FFF0900050
:10143000F6E034FFF09000F3E004F070069000F264
:10144000E004F01211D58F2E1215C68003752E04FC
:10145000900102E06025E4788BF6FF121E47E490CD
:101460000102F0F52AF52B00052BE52B7002052A69
:1014700064A0452A70F17F01121E47D2D812187558
:101480000213CA22C0E0C0F0C083C082C0D075D0B1
:1014900008C2CF30CD0302151B30CB4920CC467893
:1014A00080A6CEE6FF54F0FEBE8031EF540F75F0FB
:1014B00003A424E2F582E4341CF583E493FB740175
:1014C00093FA7402938B278A28F5290529E5297058
:1014D00002052814F91204CBF5CE80097880E625A0
:1014E00026F8E6F5CE30CC2A7880E654F0FFBF80AF
:1014F00015AB270529E529AA287002052814F91239
:1015000004CBF5CE8021788006E62526F8E6F5CED8
:10151000801520CB127880E6FFC3940A50067481B0
:101520002FF8A6CE788006788B7601D0D0D082D0E6
:1015300083D0F0D0E0320019001900640064000884
:101540000008000000000028002800FA00FA000A45
:10155000000A00000000004B004B01B301B3000C77
:10156000000C00000000007D007D025802580010B1
:1015700000100000000000DC00DC03340334001322
:101580000013000000000140014003FC03FC001EAA
:10159000001E0000000001C201C2046A046A002D9E
:1015A000002D00000000021202120500050000508C
:1015B0000050000000000258025805280528007855
:1015C000007800000000027602760564056400DC05
:1015D00000DC00000000E4F518E51875F006A4240E
:1015E00094FFE51825E02420F8E2FC08E2FD121E35
:1015F0005BE51875F006A42496FFE51825E0241095
:10160000F8E2FC08E2FD121E5BE51875F006A42462
:1016100098FBC003E51825E02430F8E2FE08E2FF5D
:10162000E4FCFDE51825E025E02430F81206ABEFD8
:101630002BFFEE3AFEED39FDEC38FC78041206790A
:10164000AD07AC06D007121E5B0518E518C394065B
:10165000408722E4FE788FE630E035E4FF7893E6B9
:1016600024FEFD18E634FFFCEF25E02401F9C3E376
:101670009D19E39C40149000F0E0FD7401A805085A
:101680008002C333D8FC420680390FBF04CF8033B9
:10169000E4FF7893E624FEFD18E634FFFCEF25E036
:1016A0002401F9C3E39D19E39C40149000F0E0FD90
:1016B0007401A805088002C333D8FC420680040FD9
:1016C000BF02CF900108EEF022E4F521FF79FFFE82
:1016D000EE25E02400F8E2FC08E2C3789396EC18CB
:1016E000964049788FE630E00F7401A80608800222
:1016F000C333D8FC42078027EEC39402500F740115
:10170000A806088002C333D8FC42078012EE24FEEC
:10171000FD7401A805088002C333D8FCF45201749B
:1017200001A806088002C333D8FC42210EBE04A0E3
:10173000900103E521F0A3EFF0A3E9F022EFC394B9
:101740000650139000F0E06F600CE49000F8F0A3F6
:10175000F09000F0EFF09000F0E0FFA3E06F604F3A
:10176000788FE630E021EFC39406503D900102E00F
:10177000703704F09000F0E024D6F582E43400F5F0
:1017800083E0788CF680229000F0E0C39402501938
:10179000900102E0701304F09000F0E024D6F5828E
:1017A000E43400F583E0788CF69000F0E0A3F022BA
:1017B000C0E0C0F0C083C082C0D075D000C000C0FF
:1017C00004C005C006C007C28D758CD8758AF005A7
:1017D0002DE52D7002052CAE2CFF7C007D641204DB
:1017E000F6ED4C70219000F2E0FEA3E0FFD3940AE6
:1017F000EE94004006A3EEF0A3EFF09000F2E4F0C8
:10180000A3F0F52CF52DD007D006D005D004D000DC
:10181000D0D0D082D083D0F0D0E032E4FBFA121DD9
:10182000E59000EE74FFF09000F0F0A3F0E490007B
:10183000EFF09000F8F0A3F07884F208F2A3F0A3A0
:10184000F0FFEF25E024C6F582E43400F583E0FCE8
:10185000A3E02BFBEC3AFA0FBF02E77C007D14AF4C
:1018600003AE021204F6900101EFF0120C31120ED9
:10187000B41207087F0A121C4A9000F6EEF0A3EF9C
:10188000F0121E32227881E6FF605FE4F6EF24E07A
:10189000601E24F0602024F0602A24F0603424F0DC
:1018A000603724F0603A24607040E4FF121DA822E3
:1018B0007F01121DA8227892760008760F788FE6B5
:1018C0004410F62278927600087628788FE654EF56
:1018D000F622788FE64401F622788FE654FEF6224F
:1018E000121C7E7890A60608A60722AC07E4F9EC45
:1018F0006056788FE630E023E4FD74017E00A80591
:10190000088005C333CE33CED8F9FFECFBE4EF5BA0
:1019100060038D21090DBD04E18021E4FD74017E89
:1019200000A805088005C333CE33CED8F9FFECFB01
:10193000E4EF5B60038D21090DBD02E1E9D3940161
:1019400040037FFF22AF21227FFF22E4FF12005ECF
:101950008E1A8F1B7820E51AF208E51BF27901AF89
:101960000112005EE925E02420F8EEF208EFF2D340
:10197000E51B9FE51A9E40048E1A8F1B09B906DFEE
:10198000E4F9E925E02421F8C3E2951BFF18E2956C
:101990001AF8E925E02400C8F208EFF209B906E2D6
:1019A00022C0E0C0F0C083C082C0D075D01053B94F
:1019B000FD75250074C42525F8E675F003A4241AE6
:1019C000F582E4341EF583E493740193FA74029370
:1019D000F9120702E52525E025E02450F81206B8A3
:1019E0000525E525C3940640CB752F00D0D0D082C5
:1019F000D083D0F0D0E032788C7608121D12BFFF71
:101A0000050876148004788D76FFE4788EF60876E3
:101A10001074FF08F608F608760008760FE4FFEF6A
:101A200075F006A42494F8E4F608F6EF75F006A421
:101A30002496F8E4F608F6EF75F006A42498F8E486
:101A4000F608F60FBF06D875268C2208C4020503D7
:101A5000040106000704CC00000000603D00C60041
:101A6000DC00DC033403340014001400460046019B
:101A70000203040506070800000000000000000043
:101A800000000000000000FF00FFFF000000000059
:101A900000000000000000000000000000E4FFFE65
:101AA00074C42EF8E6901F289342070EBE06F1EF8D
:101AB00042D4EF42F4EF42E4EFF452DC75BA0C4347
:101AC000BA2043B92053B9BF8FB4E4F5B375B22738
:101AD00075B11075BBFF75A95075AA3BF5AB75AC18
:101AE0000375ADC075AEC022E49000F8F0A3F0908D
:101AF00000F074FFF0A3E0FFF46030788FE630E090
:101B000016EFC394065024900102E0701E04F07892
:101B10008CE64408F68014EFC39402500E90010244
:101B2000E0700804F0788CE64408F69000F174FF49
:101B3000F0229000F0E0F4702F1216B91212C212C7
:101B40001B67900103E0FF900107E0FEEF5E90014C
:101B500003F0A3E0F520A3E05220900107E052201B
:101B6000900106E052208009121643900108E0F52A
:101B700020AF201218DB227FFFE4FEEE25E02401D7
:101B8000F9C3E3941E19E39400501EEE25E02409E6
:101B9000F9C3E3942819E39400400E7401A80608E1
:101BA0008002C333D8FCF452070EBE02CE90010669
:101BB000EFF022121D3CE4F51E74C4251EF8E675F4
:101BC000F003A4241AF582E4341EF583E49374012F
:101BD00093FA740293F9120702E51E25E025E0242A
:101BE00050F81206B8051EE51EC3940640CB22E449
:101BF000FE7C0674C42CF8E6901F289342060CBCA9
:101C000008F1EF6005EE42D48004EEF452D4EEF415
:101C1000FF52F4EE42E4ED6005EE42EC8003EF5239
:101C2000ECEF52DC227E007FDEE4FDED25E024882F
:101C3000F582E4341DF583E493F4601DED25E02482
:101C400089F582E4341DF583E493FCEF2DF582E4FD
:101C50003EF583ECF00DBD10D222751A00751BDE27
:101C60007B017A00BFFF057F017E0022E51B2FF577
:101C700082E4351AF583E07A00FB9000F4E0FCA3DF
:101C8000E0FDAF037E001204E4AA06AB0722E4F5F0
:101C900018F519FFFEFD7C20ED1DAA0470011C4AF9
:101CA000601E0519E519AA187002051814F5828A34
:101CB00083E493F4FBE4F4FAEB2FFFEA3EFE80D8D2
:101CC0002243F80875CDC053CC7F43CC4043CC2091
:101CD00043CC1043CC0453CCFD43CB0243CB015344
:101CE000CBBF43E80853E5FC43E30243F5034390CD
:101CF0000322FE0030FE0038FE0040FE0048FE00D9
:101D000050FE00580000700000780101030100F24D
:101D1000FE0000FE0008FE0020FE0028FE0010FE6F
:101D20000018E4F518F519FFFD7C20ED1DAA0470DC
:101D3000011C4A60160519E519AA18700205181445
:101D4000F5828A83E493F42FFF80E02275BF0F00B1
:101D50000000000000000000000000000000000083
:101D600000D2D853B9FD43B901E5B930E1FBE4F540
:101D7000BF22438901C28DD2A953B8FDE4F52CF5E9
:101D80002D9000F2F0A3F0A3F0A37464F0758CD84A
:101D9000758AF0D28CD2AF22000201010201030148
:101DA0000401050A06050702080A09020A020B28AF
:101DB0000C3C0D030E01FF01E4FE7D0674C42DF8FA
:101DC000E6901F289342060DBD08F1EF6004EE4235
:101DD0008022EEF4528022EF600543D50480035345
:101DE000D5FB53F5FB53E5FB43E304E4900102F01C
:101DF00090010AF02253BAFEE5B920E004E52F6015
:101E000005E5B930E1FBE4F5BF53B9FE53B9FD2256
:101E1000AB07AA06D3EB9DEA9C4007EB9DFFEA9C2B
:101E2000FE22C3ED9BFFEC9AFE22FF1E83FF1E964F
:101E3000FF1EA9FF1EBCFF1ECFFF1EE2FF1EF5FF07
:101E40001F0875BF0F43B92053B9FD43BA01752F61
:101E50000143B901D2D822EF6009D29290010974EE
:101E6000FFF022C292E4900109F022AB07AF04AE6A
:101E700005C2AFA803A607E804F8A606D2AF22ED74
:101E80006008EF901F2893428022EF901F2893F460
:101E900052802253B9EF78CDA6B708A6B608A6B5EA
:101EA00078CC12069F2253B9EF78CDA6EB08A6EAAC
:101EB00008A6E978CC12069F2253B9EF78CDA6F395
:101EC00008A6F208A6F178CC12069F2253B9EF7843
:101ED000CDA6FB08A6FA08A6F978CC12069F2243E5
:101EE000B91078CDA6B708A6B608A6B578CC120664
:101EF0009F2243B91078CDA6EB08A6EA08A6E97898
:101F0000CC12069F2243B91078CDA6F308A6F2089A
:101F1000A6F178CC12069F2243B91078CDA6FB0813
:101F2000A6FA08A6F978CC12069F22C2DA53D80F77
:101F300043D8D0D2D8D2D922010204081020408040
:101F4000F0FFFFFFFFFFFFFFFFFFFFFFFFFFFFFFB0
:00000001FF
